:100000000C9434000C9449000C9449000C94490061
:100010000C9449000C9449000C9449000C9449003C
:100020000C9449000C9449000C9449000C9449002C
:100030000C9449000C9449000C9449000C9449001C
:100040000C9449000C9449000C9449000C9449000C
:100050000C9449000C9449000C9449000C944900FC
:100060000C9449000C94490011241FBECFEFD8E036
:10007000DEBFCDBF11E0A0E0B1E0E6E6F7E002C0F0
:1000800005900D92A630B107D9F70E94B5010C94E6
:10009000B1030C94000085B1886085B985E38A9529
:1000A000F1F7000085B1877F85B98FEC97E0019764
:1000B000F1F700C0000008959BB1937C9BB983FFCA
:1000C00003C09BB194609BB982FF03C09BB1986051
:1000D0009BB981FF03C09BB190619BB980FF03C0B6
:1000E0008BB180628BB90E944B000895CF93C82FCB
:1000F000613021F485B1806185B903C085B18F7EFF
:1001000085B98C2F82958F700E945C008C2F8F7028
:100110000E945C00CF910895CF93C82F60E00E94A9
:100120007600C150C23048F42FEF89EF90E02150A3
:1001300080409040E1F700C00000CF91089561E059
:100140000E9476000895882311F090E401C090E0A9
:10015000862F8F70890F80680E948C000895CF933E
:10016000DF93EC0103C021960E949F0088818111DA
:10017000FACFDF91CF91089581E00E948C0008951D
:1001800084B1806184B984B1886084B98AB18C6398
:100190008AB92FEF83EC99E0215080409040E1F73D
:1001A00000C0000085B18F7E85B985B1877F85B994
:1001B00083E00E945C002FEF80E792E021508040B6
:1001C0009040E1F700C0000083E00E945C008FE6F1
:1001D00097E10197F1F700C0000083E00E945C0006
:1001E0008FE697E10197F1F700C0000082E00E94DE
:1001F0005C008FE697E10197F1F700C0000088E20C
:100200000E948C0088E00E948C0081E00E948C009B
:1002100086E00E948C008CE00E948C0008951F9361
:10022000CF93DF9300D000D000D0CDB7DEB7AC01C4
:10023000892B91F580E30E949F003FC09A01ADECAD
:10024000BCEC0E94A2039695879596958795969506
:1002500087959C01220F331F880F991F880F991FC4
:10026000880F991F820F931F9A01281B390BC90110
:10027000E1E0F0E0EC0FFD1FE10FF11D805D8083F8
:100280009A010E94A203AC01569547955695479551
:10029000569547951F5F01C010E04115510571F655
:1002A0000AC01150E1E0F0E0EC0FFD1FE10FF11D7D
:1002B00080810E949F001111F4CF26960FB6F8940A
:1002C000DEBF0FBECDBFDF91CF911F9108958F92FA
:1002D0009F92AF92BF92CF92DF92EF92FF92CF9315
:1002E000DF936B017C0120E030E0A9010E944F0206
:1002F00088233CF48DE20E949F00F7FAF094F7F80F
:10030000F094C701B6010E9454024B015C0180E0E9
:1003100090E00E9483029B01AC01C701B6010E94DC
:10032000E20120E030E048EC52E40E9435030E94F4
:1003300054026B017C01EB01C4010E940F018EE2AB
:100340000E949F002A9718F480E30E949F00C60134
:100350000E940F01DF91CF91FF90EF90DF90CF903F
:10036000BF90AF909F908F9008950E94C00060E072
:1003700080E00E94A30080E091E00E94AF0060E076
:1003800081E00E94A3006FE872EC81EB91E40E948F
:10039000670124E531E882EF97E02150304080404A
:1003A0009040D9F700C000C000000E94BC002AEABB
:1003B00036EE86E991E02150304080409040D9F7F8
:1003C0000000D5CF5058BB27AA270E94FA010C94F1
:1003D000FB020E94ED0238F00E94F40220F039F492
:1003E0009F3F19F426F40C94EA020EF4E095E7FB23
:1003F0000C94E402E92F0E940C0358F3BA17620729
:1004000073078407950720F079F4A6F50C942E0362
:100410000EF4E0950B2EBA2FA02D0B01B90190011F
:100420000C01CA01A0011124FF27591B99F0593F63
:1004300050F4503E68F11A16F040A22F232F342FAB
:100440004427585FF3CF469537952795A795F040F9
:100450005395C9F77EF41F16BA0B620B730B840B0E
:10046000BAF09150A1F0FF0FBB1F661F771F881FC6
:10047000C2F70EC0BA0F621F731F841F48F487951E
:1004800077956795B795F7959E3F08F0B0CF939510
:10049000880F08F09927EE0F9795879508950E9489
:1004A000C00208F481E008950E94140388F09F5769
:1004B00098F0B92F9927B751B0F0E1F0660F771F88
:1004C000881F991F1AF0BA95C9F714C0B13091F07E
:1004D0000E942E03B1E008950C942E03672F782F0D
:1004E0008827B85F39F0B93FCCF386957795679543
:1004F000B395D9F73EF490958095709561957F4FAF
:100500008F4F9F4F0895E89409C097FB3EF4909554
:100510008095709561957F4F8F4F9F4F9923A9F0DC
:10052000F92F96E9BB279395F6958795779567956B
:10053000B795F111F8CFFAF4BB0F11F460FF1BC0AF
:100540006F5F7F4F8F4F9F4F16C0882311F096E942
:1005500011C0772321F09EE8872F762F05C06623F0
:1005600071F096E8862F70E060E02AF09A95660FA9
:10057000771F881FDAF7880F9695879597F9089562
:10058000990F0008550FAA0BE0E8FEEF16161706A4
:10059000E807F907C0F012161306E407F50798F00C
:1005A000621B730B840B950B39F40A2661F0232B25
:1005B000242B252B21F408950A2609F4A140A695A1
:1005C0008FEF811D811D089597F99F6780E870E086
:1005D00060E008959FEF80EC089500240A941616B9
:1005E000170618060906089500240A941216130621
:1005F000140605060895092E0394000C11F48823AF
:1006000052F0BB0F40F4BF2B11F460FF04C06F5FCA
:100610007F4F8F4F9F4F089557FD9058440F551FA0
:1006200059F05F3F71F04795880F97FB991F61F074
:100630009F3F79F087950895121613061406551FEB
:10064000F2CF4695F1DF08C0161617061806991F57
:10065000F1CF86957105610508940895E894BB274C
:1006600066277727CB0197F908950E9448030C94D9
:10067000FB020E94ED0238F00E94F40220F0952364
:1006800011F00C94E4020C94EA0211240C942F0350
:100690000E940C0370F3959FC1F3950F50E0551F16
:1006A000629FF001729FBB27F00DB11D639FAA27C7
:1006B000F00DB11DAA1F649F6627B00DA11D661F16
:1006C000829F2227B00DA11D621F739FB00DA11D37
:1006D000621F839FA00D611D221F749F3327A00DF1
:1006E000611D231F849F600D211D822F762F6A2F8D
:1006F00011249F5750409AF0F1F088234AF0EE0FF2
:10070000FF1FBB1F661F771F881F91505040A9F71E
:100710009E3F510580F00C94E4020C942F035F3F40
:10072000E4F3983ED4F3869577956795B795F7955A
:10073000E7959F5FC1F7FE2B880F911D96958795D2
:1007400097F90895A29FB001B39FC001A39F700DB8
:10075000811D1124911DB29F700D811D1124911DC9
:060760000895F894FFCF9C
:0607660068656C6C6F0079
:00000001FF
