S00B00004144432E7372656351
S11300000C9434000C943E000C943E000C943E007E
S11300100C943E000C943E000C943E000C943E0064
S11300200C943E000C943E000C943E000C943E0054
S11300300C943E000C943E000C943E000C943E0044
S11300400C943E000C943E000C943E000C943E0034
S11300500C943E000C943E000C943E000C943E0024
S11300600C943E000C943E0011241FBECFEFD8E048
S1130070DEBFCDBF0E9440000C9466000C940000CB
S11300808AB188608AB9ACE7B0E08C918F778C93A1
S11300908C9180648C93EAE7F0E0808184608083B3
S11300A08081826080838081816080838081806898
S11300B080838081806480838081806180838C914F
S11300C082608C938C9181608C93FFCFF894FFCFE6
S9030000FC
