S0100000464153542050574D2E73726563D2
S11300000C9434000C943E000C943E000C943E007E
S11300100C943E000C943E000C943E000C943E0064
S11300200C943E000C943E000C943E000C943E0054
S11300300C943E000C943E000C943E000C943E0044
S11300400C943E000C943E000C943E000C943E0034
S11300500C943E000C943E000C943E000C943E0024
S11300600C943E000C943E0011241FBECFEFD8E048
S1130070DEBFCDBF0E9440000C9490000C940000A1
S11300800E94470084E190E00E945F00FFCF80E47B
S11300908AB984B5816084BD84B5826084BD84B529
S11300A0806884BD84B5806484BD85B58B7F85BD3F
S11300B085B5826085BD85B5816085BD089520E0E4
S11300C0982F822F64E670E00E94680067BD08954F
S11300D097FB072E16F4009407D077FD09D00E94F1
S11300E07C0007FC05D03EF4909581959F4F0895C0
S11300F0709561957F4F0895AA1BBB1B51E107C002
S1130100AA1FBB1FA617B70710F0A61BB70B881FA3
S1130110991F5A95A9F780959095BC01CD01089532
S1070120F894FFCF7D
S9030000FC
