:100000000C9434000C943E000C943E000C943E0082
:100010000C943E000C943E000C943E000C943E0068
:100020000C943E000C943E000C943E000C943E0058
:100030000C943E000C943E000C943E000C943E0048
:100040000C943E000C943E000C943E000C943E0038
:100050000C943E000C943E000C943E000C943E0028
:100060000C943E000C943E0011241FBECFEFD8E04C
:10007000DEBFCDBF0E945E000C946C000C940000AB
:1000800084B58E7F84BD84B58D7F84BD85B58B7F1F
:1000900085BD85B58D7F85BD85B5816085BD20E039
:1000A00030E007C0A89BFECF85B3816085BB2F5F82
:1000B0003F4F243284EF3807A8F3089584B180625B
:1000C00084B985B1806285B90E94400085B18F7D79
:0C00D00085B90E944000F5CFF894FFCFE6
:00000001FF
